{
  "_format": "hh3-artifact-1",
  "contractName": "NumberGuessing",
  "sourceName": "contracts/NumberGuessing.sol",
  "abi": [
    {
      "inputs": [],
      "stateMutability": "nonpayable",
      "type": "constructor"
    },
    {
      "anonymous": false,
      "inputs": [
        {
          "indexed": false,
          "internalType": "address",
          "name": "winner",
          "type": "address"
        },
        {
          "indexed": false,
          "internalType": "uint256",
          "name": "amount",
          "type": "uint256"
        }
      ],
      "name": "CorrectGuess",
      "type": "event"
    },
    {
      "anonymous": false,
      "inputs": [
        {
          "indexed": false,
          "internalType": "address",
          "name": "player",
          "type": "address"
        }
      ],
      "name": "WrongGuess",
      "type": "event"
    },
    {
      "inputs": [
        {
          "internalType": "uint256",
          "name": "number",
          "type": "uint256"
        }
      ],
      "name": "guess",
      "outputs": [],
      "stateMutability": "payable",
      "type": "function"
    },
    {
      "inputs": [],
      "name": "owner",
      "outputs": [
        {
          "internalType": "address",
          "name": "",
          "type": "address"
        }
      ],
      "stateMutability": "view",
      "type": "function"
    },
    {
      "inputs": [
        {
          "internalType": "uint256",
          "name": "secret",
          "type": "uint256"
        }
      ],
      "name": "setNumber",
      "outputs": [],
      "stateMutability": "nonpayable",
      "type": "function"
    }
  ],
  "bytecode": "0x6080604052348015600e575f5ffd5b50600180546001600160a01b031916331790556102948061002e5f395ff3fe608060405260043610610033575f3560e01c80633fb5c1cb146100375780638da5cb5b146100585780639189fec114610093575b5f5ffd5b348015610042575f5ffd5b50610056610051366004610247565b6100a6565b005b348015610063575f5ffd5b50600154610077906001600160a01b031681565b6040516001600160a01b03909116815260200160405180910390f35b6100566100a1366004610247565b61011a565b6001546001600160a01b031633146100f15760405162461bcd60e51b81526020600482015260096024820152683737ba1037bbb732b960b91b60448201526064015b60405180910390fd5b60408051602081018390520160408051601f1981840301815291905280516020909101205f5550565b66038d7ea4c680003410156101715760405162461bcd60e51b815260206004820152601e60248201527f6d757374206465706f73697420696e746f20706f7420746f206775657373000060448201526064016100e8565b5f8160405160200161018591815260200190565b604051602081830303815290604052805190602001209050805f5403610210576040514790339082156108fc029083905f818181858888f193505050501580156101d1573d5f5f3e3d5ffd5b5060408051338152602081018390527f45684863e2c1ec0dd7c6f91444bfccef14272db7caeffa842f3d6b09786f42df910160405180910390a1505050565b6040513381527f27c9c02d41a39b4a4017c59cdbd81010e0816f8a7391ce007b9a2736ea0bba679060200160405180910390a15050565b5f60208284031215610257575f5ffd5b503591905056fea2646970667358221220ae01ccdee21112cbb1f4bbddb9199b289a7c64eeed4d21ba383762755ccea13a64736f6c634300081c0033",
  "linkReferences": {},
  "deployedLinkReferences": {},
  "immutableReferences": {},
  "inputSourceName": "project/contracts/NumberGuessing.sol",
  "buildInfoId": "solc-0_8_28-67c4b521291002f250d022ed214deb182af6d6ce"
}